S0170000556172745F48656C6C6F576F726C642E7372656316
S113000008E8FF1FCD0100006F010000A3010000FC
S113001000000000000000000000000000000000DC
S1130020000000000000000000000000F3050000D4
S11300300000000000000000FF0500009D06000015
S11300403D060000450600004D0600005506000070
S11300509506000095060000950600009506000030
S11300605D060000650600006D06000075060000D0
S11300704F0500007D06000085060000950600007F
S11300809506000095060000950600009506000000
S11300909506000095060000950600008D060000F8
S11300A095060000950600009506000095060000E0
S11300B095060000950600009506000095060000D0
S11300C00022030A8B420BD203098B4219D2430844
S11300D08B422ED2411A00D201465241104670473B
S11300E0FF2209023FD012068B4205D312120902E5
S11300F08B4201D31212090203098B4219D300E087
S1130100090AC3098B4201D3CB01C01A52418309A6
S11301108B4201D38B01C01A524143098B4201D354
S11301204B01C01A524103098B4201D30B01C01A7F
S11301305241C3088B4201D3CB00C01A52418308F9
S11301408B4201D38B00C01A524143088B4201D326
S11301504B00C01A5241884200D3401A5241CFD2B8
S113016001461046704708B500F002F808BDFEE7E6
S1130170704730B401220EE00368C31844680830A5
S1130180144202D04D466D1E64191D6825601B1D66
S1130190241D091FF9D10168001D0029ECD130BCD0
S11301A07047FEE710B5074979441831064C7C4482
S11301B0163404E0081D0A68891888470100A14222
S11301C0F8D110BDD0030000E003000072B604486B
S11301D0044901600448804762B6044800470000AF
S11301E008ED00E0000000002506000031060000D4
S10701F000004001C6
S1130400FFFFFFFFFFFFFFFFFFFFFFFFFEFFFFFFF9
S1130410F3B583B0002004000290802080004F498F
S11304200A6802430A604E494E4A13680B4013603F
S11304301368034313604C4A136819401160116830
S11304400843106049480168494A0A40026001684B
S11304508022D2040A430260464801688022D20006
S11304600A43026003980190042530E0049803993C
S11304706943FFF725FE0600300080B2002800D152
S113048001260498310089B26943FFF719FE0399E4
S1130490471A039900910498310089B2491C6943B1
S11304A0FFF70EFE0099081AB84209D2039F049878
S11304B0310089B2491C6943FFF702FE3F1A761CDA
S11304C00198B84202D30197029534006D1C212D86
S11304D0CCD329480178F3220A400270E021274A4C
S11304E013780B40029D6D1E1D431570244A13782A
S11304F0194023009BB21B0A0B43137021490C7053
S11305001178DF230B4013701178117001780C22DD
S11305100A430270017820220A43027080204001BD
S11305201949086005B0F0BD00B5184909784906B5
S1130530FBD51749087000BD10B5040003E020780E
S1130540FFF7F2FF641C20780028F8D110BD80B5B5
S11305500F480078C0B2FFF7E7FF01BD38800440C0
S1130560FFF8FFFF04900440089004400480044016
S1130570FFFFFFF33480044003A006400AA00640B6
S113058000A0064001A0064000E100E004A00640EF
S113059007A00640DFFBFFFF0400000054FCFFFF40
S11305A000E0FF1F0000000080B505480168E1205D
S11305B04002FFF72DFF0348FFF7BEFFFEE700BF31
S11305C000E0FF1F1406000000F00DF8002801D021
S11305D0FFF7E8FD00BF00BF002000BF00BFFFF72A
S11305E0E3FF00F002F80120704780B500F002F844
S11305F001BDFEE70746384600F002F8FBE7FEE7D8
S113060080B500BF00BF024A11001820ABBEFBE753
S11306102600020048656C6C6F20576F726C640D85
S11306200A0000000020014908607047008104406E
S113063000BF00BF00BF00BFFFF7C6FF0048004770
S11306409506000000480047950600000048004752
S11306509506000000480047950600000048004742
S11306609506000000480047950600000048004732
S11306709506000000480047950600000048004722
S11306809506000000480047950600000048004712
S1110690950600000048004795060000FEE7AE
S9030631C5
